:100000000C9435000C945D000C945D000C945D0024
:100010000C945D000C945D000C945D000C945D00EC
:100020000C945D000C945D000C945D000C945D00DC
:100030000C945D000C945D000C945D000C945D00CC
:100040000C94DE0B0C945D000C945D000C945D0030
:100050000C945D000C945D000C945D000C945D00AC
:100060000C945D000C945D00280C11241FBECFEF92
:10007000D8E0DEBFCDBF11E0A0E0B1E0EEE6FBE1ED
:1000800002C005900D92A637B107D9F723E0A6E785
:10009000B1E001C01D92A636B207E1F710E0C5E35A
:1000A000D0E004C02197FE010E94A30DC433D10704
:1000B000C9F70E94540C0C94B50D0C9400000F93DA
:1000C0001F93CF93DF93EC018B01E881F9810480CA
:1000D000F581E02D09951B830A838CE190E09E87D2
:1000E0008D87E881F9810088F189E02DCE0109959D
:1000F000009701F19C0150E040E060E472E48FE081
:1001000090E00E942D0D80915C0390915D03A09181
:100110005E03B0915F0382179307A407B50710F43D
:10012000DA01C90180935C0390935D03A0935E03A1
:10013000B0935F03CE01DF91CF911F910F9108958E
:100140003FB7F8948091FD019091FE01A091FF01CD
:10015000B091000226B5A89B05C02F3F19F001966B
:10016000A11DB11D3FBFBA2FA92F982F8827BC0111
:10017000CD01620F711D811D911D42E0660F771F39
:10018000881F991F4A95D1F708950F931F93CF9316
:10019000DF9320917B012F5F322F377030937B01EB
:1001A00020FF2BC020E831FD2064347009F020626C
:1001B000205FFC01EC01239600E011E067856623D7
:1001C00029F070E0C8010E94190D6F5F6187822FCE
:1001D000869F080E80E0811D1124811110C01682B7
:1001E000662311F0615061873196EC17FD0731F7F6
:1001F000DF91CF911F910F91089520E0D4CF8150CE
:100200008683EECFCF93DF93EC010E94A000798329
:100210006883DF91CF910895CF93DF93EC010E9423
:10022000A00028813981621B730B6A307105B8F315
:10023000DF91CF9108954F925F927F928F929F921C
:10024000AF92BF92CF92DF92EF92FF920F931F93E4
:10025000CF93DF93EB0145962C010E940C01F8949B
:100260008A819B81181619060CF0CDC1E881F981AD
:100270006BB1862E689482F83BB13B7F3BB9D98441
:100280008E81ED2CE81A8E2DEE824C85042E000C0A
:10029000550BAA81BB817F85F888E9887F5FF3943D
:1002A000E3949F819884BA84AB841081C12C2C2D57
:1002B0000C2D6C2D6081112788946111680F08F452
:1002C0006FEF8195889470FD160F1795889471FDD6
:1002D000160F1795889472FD160F1795889473FD65
:1002E000160F1795889474FD160F1795889475FD51
:1002F000160F1795889476FD160F1795889477FD3D
:10030000160F17958894262F7111212F8D0D122FFE
:10031000002C8BB800C000C017FF3BB961812227B9
:100320008894002C3BB96111690F00C000C0002CFB
:100330008BB800C000C016FF3BB908F46FEF919571
:100340008894002C3BB9F0FC260F00C000C0002CA4
:100350008BB800C000C015FF3BB927958894F1FC0D
:10036000260F002C3BB92795889400C000C0002CB4
:100370008BB800C000C014FF3BB9F2FC260F2795D4
:100380008894002C3BB9F3FC260F00C000C0002C61
:100390008BB800C000C013FF3BB927958894F4FCCC
:1003A000260F002C3BB92795889400C000C0002C74
:1003B0008BB800C000C012FF3BB9F5FC260F279593
:1003C0008894002C3BB9F6FC260F00C000C0002C1E
:1003D0008BB800C000C011FF3BB927958894F7FC8B
:1003E000260F002C3BB92795889400C000C0002C34
:1003F0008BB800C000C010FF3BB9162FF110122FB0
:100400009B0D002C3BB900C000C000C0002C8BB875
:1004100000C000C017FF3BB9628122278894002CDE
:100420003BB96111690D00C000C0002C8BB800C041
:1004300000C016FF3BB908F46FEFE40FF51F002C66
:100440003BB9E0FC260F00C000C0002C8BB800C0F8
:1004500000C015FF3BB927958894E1FC260F002CBE
:100460003BB92795889400C000C0002C8BB800C011
:1004700000C014FF3BB9E2FC260F27958894002C9E
:100480003BB9E3FC260F00C000C0002C8BB800C0B5
:1004900000C013FF3BB927958894E4FC260F002C7D
:1004A0003BB92795889400C000C0002C8BB800C0D1
:1004B00000C012FF3BB9E5FC260F27958894002C5D
:1004C0003BB9E6FC260F00C000C0002C8BB800C072
:1004D00000C011FF3BB927958894E7FC260F002C3C
:1004E0003BB92795889400C000C0002C8BB800C091
:1004F00000C010FF3BB9162FE110122F9194002C71
:100500003BB99A0C00C000C000C08BB800C000C04E
:1005100017FF3BB9608122278894002C3BB96111F9
:10052000680F00C000C0002C8BB800C000C016FFD0
:100530003BB908F46FEF81958894002C3BB970FDAE
:10054000260F00C000C0002C8BB800C000C015FFF3
:100550003BB92795889471FD260F002C3BB9279550
:10056000889400C000C0002C8BB800C000C014FFED
:100570003BB972FD260F27958894002C3BB973FD7B
:10058000260F00C000C0002C8BB800C000C013FFB5
:100590003BB92795889474FD260F002C3BB927950D
:1005A000889400C000C0002C8BB800C000C012FFAF
:1005B0003BB975FD260F27958894002C3BB976FD35
:1005C000260F00C000C0002C8BB800C000C011FF77
:1005D0003BB92795889477FD260F002C3BB92795CA
:1005E000889400C000C0002C8BB800C000C010FF71
:1005F0003BB9162F7111122F8D0D002C3BB900C085
:10060000119709F086CEEA81FB812EE130E0DF010F
:100610000E945B0D30E020E0A901AAE9EA9F0E0EDE
:10062000411DFA9F400D511D11244F0F511D7B019B
:100630008C01E40EF51E011D111DB801A701493EF4
:1006400003E050076105710508F435C0485E53406A
:100650006109710982E076956795579547958A9566
:10066000D1F7C90127E0429F040E811D529F800DE2
:10067000911D1124850F911D20917A0130E0420FC8
:10068000531F840F951F4091F9015091FA01609119
:10069000FB017091FC01292F3327420F531F611D6D
:1006A000711D4093F9015093FA016093FB0170931F
:1006B000FC0180937A017894C201DF91CF911F9160
:1006C0000F91FF90EF90DF90CF90BF90AF909F90F1
:1006D0008F907F905F904F900C94020180E991E0A1
:1006E0000895529A08954F925F927F928F929F92AF
:1006F000AF92BF92CF92DF92EF92FF920F931F9330
:10070000CF93DF93EB0145962C010E940C01F894E6
:100710008A819B81181619060CF0CDC1E881F981F8
:100720006BB1862E689483F83BB1377F3BB9D9848F
:100730008E81ED2CE81A8E2DEE824C85042E000C55
:10074000550BAA81BB817F85F888E9887F5FF39488
:10075000E3949F819884BA84AB841081C12C2C2DA2
:100760000C2D6C2D6081112788946111680F08F49D
:100770006FEF8195889470FD160F1795889471FD21
:10078000160F1795889472FD160F1795889473FDB0
:10079000160F1795889474FD160F1795889475FD9C
:1007A000160F1795889476FD160F1795889477FD88
:1007B000160F17958894262F7111212F8D0D122F4A
:1007C000002C8BB800C000C017FF3BB96181222705
:1007D0008894002C3BB96111690F00C000C0002C47
:1007E0008BB800C000C016FF3BB908F46FEF9195BD
:1007F0008894002C3BB9F0FC260F00C000C0002CF0
:100800008BB800C000C015FF3BB927958894F1FC58
:10081000260F002C3BB92795889400C000C0002CFF
:100820008BB800C000C014FF3BB9F2FC260F27951F
:100830008894002C3BB9F3FC260F00C000C0002CAC
:100840008BB800C000C013FF3BB927958894F4FC17
:10085000260F002C3BB92795889400C000C0002CBF
:100860008BB800C000C012FF3BB9F5FC260F2795DE
:100870008894002C3BB9F6FC260F00C000C0002C69
:100880008BB800C000C011FF3BB927958894F7FCD6
:10089000260F002C3BB92795889400C000C0002C7F
:1008A0008BB800C000C010FF3BB9162FF110122FFB
:1008B0009B0D002C3BB900C000C000C0002C8BB8C1
:1008C00000C000C017FF3BB9628122278894002C2A
:1008D0003BB96111690D00C000C0002C8BB800C08D
:1008E00000C016FF3BB908F46FEFE40FF51F002CB2
:1008F0003BB9E0FC260F00C000C0002C8BB800C044
:1009000000C015FF3BB927958894E1FC260F002C09
:100910003BB92795889400C000C0002C8BB800C05C
:1009200000C014FF3BB9E2FC260F27958894002CE9
:100930003BB9E3FC260F00C000C0002C8BB800C000
:1009400000C013FF3BB927958894E4FC260F002CC8
:100950003BB92795889400C000C0002C8BB800C01C
:1009600000C012FF3BB9E5FC260F27958894002CA8
:100970003BB9E6FC260F00C000C0002C8BB800C0BD
:1009800000C011FF3BB927958894E7FC260F002C87
:100990003BB92795889400C000C0002C8BB800C0DC
:1009A00000C010FF3BB9162FE110122F9194002CBC
:1009B0003BB99A0C00C000C000C08BB800C000C09A
:1009C00017FF3BB9608122278894002C3BB9611145
:1009D000680F00C000C0002C8BB800C000C016FF1C
:1009E0003BB908F46FEF81958894002C3BB970FDFA
:1009F000260F00C000C0002C8BB800C000C015FF3F
:100A00003BB92795889471FD260F002C3BB927959B
:100A1000889400C000C0002C8BB800C000C014FF38
:100A20003BB972FD260F27958894002C3BB973FDC6
:100A3000260F00C000C0002C8BB800C000C013FF00
:100A40003BB92795889474FD260F002C3BB9279558
:100A5000889400C000C0002C8BB800C000C012FFFA
:100A60003BB975FD260F27958894002C3BB976FD80
:100A7000260F00C000C0002C8BB800C000C011FFC2
:100A80003BB92795889477FD260F002C3BB9279515
:100A9000889400C000C0002C8BB800C000C010FFBC
:100AA0003BB9162F7111122F8D0D002C3BB900C0D0
:100AB000119709F086CEEA81FB812EE130E0DF015B
:100AC0000E945B0D30E020E0A901AAE9EA9F0E0E2A
:100AD000411DFA9F400D511D11244F0F511D7B01E7
:100AE0008C01E40EF51E011D111DB801A701493E40
:100AF00003E050076105710508F435C0485E5340B6
:100B00006109710982E076956795579547958A95B1
:100B1000D1F7C90127E0429F040E811D529F800D2D
:100B2000911D1124850F911D20917A0130E0420F13
:100B3000531F840F951F4091F9015091FA01609164
:100B4000FB017091FC01292F3327420F531F611DB8
:100B5000711D4093F9015093FA016093FB0170936A
:100B6000FC0180937A017894C201DF91CF911F91AB
:100B70000F91FF90EF90DF90CF90BF90AF909F903C
:100B80008F907F905F904F900C940201539A08953C
:100B90004F925F927F928F929F92AF92BF92CF922D
:100BA000DF92EF92FF920F931F93CF93DF93EB01AE
:100BB00045962C010E940C01F8948A819B8118169D
:100BC00019060CF0CDC1E881F9816BB1862E6894CD
:100BD00084F83BB13F7E3BB9D9848E81ED2CE81A75
:100BE0008E2DEE824C85042E000C550BAA81BB8104
:100BF0007F85F888E9887F5FF394E3949F819884E8
:100C0000BA84AB841081C12C2C2D0C2D6C2D6081ED
:100C1000112788946111680F08F46FEF819588940B
:100C200070FD160F1795889471FD160F179588940F
:100C300072FD160F1795889473FD160F17958894FB
:100C400074FD160F1795889475FD160F17958894E7
:100C500076FD160F1795889477FD160F17958894D3
:100C6000262F7111212F8D0D122F002C8BB800C053
:100C700000C017FF3BB9618122278894002C3BB943
:100C80006111690F00C000C0002C8BB800C000C00B
:100C900016FF3BB908F46FEF91958894002C3BB98F
:100CA000F0FC260F00C000C0002C8BB800C000C0B4
:100CB00015FF3BB927958894F1FC260F002C3BB912
:100CC0002795889400C000C0002C8BB800C000C0DD
:100CD00014FF3BB9F2FC260F27958894002C3BB9F2
:100CE000F3FC260F00C000C0002C8BB800C000C071
:100CF00013FF3BB927958894F4FC260F002C3BB9D1
:100D00002795889400C000C0002C8BB800C000C09C
:100D100012FF3BB9F5FC260F27958894002C3BB9B0
:100D2000F6FC260F00C000C0002C8BB800C000C02D
:100D300011FF3BB927958894F7FC260F002C3BB98F
:100D40002795889400C000C0002C8BB800C000C05C
:100D500010FF3BB9162FF110122F9B0D002C3BB941
:100D600000C000C000C0002C8BB800C000C017FF3E
:100D70003BB9628122278894002C3BB96111690D2F
:100D800000C000C0002C8BB800C000C016FF3BB9EB
:100D900008F46FEFE40FF51F002C3BB9E0FC260FC1
:100DA00000C000C0002C8BB800C000C015FF3BB9CC
:100DB00027958894E1FC260F002C3BB92795889451
:100DC00000C000C0002C8BB800C000C014FF3BB9AD
:100DD000E2FC260F27958894002C3BB9E3FC260FF4
:100DE00000C000C0002C8BB800C000C013FF3BB98E
:100DF00027958894E4FC260F002C3BB9279588940E
:100E000000C000C0002C8BB800C000C012FF3BB96E
:100E1000E5FC260F27958894002C3BB9E6FC260FAD
:100E200000C000C0002C8BB800C000C011FF3BB94F
:100E300027958894E7FC260F002C3BB927958894CA
:100E400000C000C0002C8BB800C000C010FF3BB930
:100E5000162FE110122F9194002C3BB99A0C00C070
:100E600000C000C08BB800C000C017FF3BB9608154
:100E700022278894002C3BB96111680F00C000C084
:100E8000002C8BB800C000C016FF3BB908F46FEF10
:100E900081958894002C3BB970FD260F00C000C0DE
:100EA000002C8BB800C000C015FF3BB92795889473
:100EB00071FD260F002C3BB92795889400C000C017
:100EC000002C8BB800C000C014FF3BB972FD260F88
:100ED00027958894002C3BB973FD260F00C000C0F5
:100EE000002C8BB800C000C013FF3BB92795889435
:100EF00074FD260F002C3BB92795889400C000C0D4
:100F0000002C8BB800C000C012FF3BB975FD260F46
:100F100027958894002C3BB976FD260F00C000C0B1
:100F2000002C8BB800C000C011FF3BB927958894F6
:100F300077FD260F002C3BB92795889400C000C090
:100F4000002C8BB800C000C010FF3BB9162F7111E8
:100F5000122F8D0D002C3BB900C0119709F086CEE1
:100F6000EA81FB812EE130E0DF010E945B0D30E081
:100F700020E0A901AAE9EA9F0E0E411DFA9F400D4B
:100F8000511D11244F0F511D7B018C01E40EF51EE4
:100F9000011D111DB801A701493E03E0500761057D
:100FA000710508F435C0485E53406109710982E05B
:100FB00076956795579547958A95D1F7C90127E0AA
:100FC000429F040E811D529F800D911D1124850F9B
:100FD000911D20917A0130E0420F531F840F951F1D
:100FE0004091F9015091FA016091FB017091FC016F
:100FF000292F3327420F531F611D711D4093F901A3
:101000005093FA016093FB017093FC0180937A0185
:101010007894C201DF91CF911F910F91FF90EF90D3
:10102000DF90CF90BF90AF909F908F907F905F9018
:101030004F900C940201549A08954F925F927F92C0
:101040008F929F92AF92BF92CF92DF92EF92FF92D8
:101050000F931F93CF93DF93EB0145962C010E94D2
:101060000C01F8948A819B81181619060CF0CDC1E9
:10107000E881F9816BB1862E689485F83BB13F7D9C
:101080003BB9D9848E81ED2CE81A8E2DEE824C85E9
:10109000042E000C550BAA81BB817F85F888E98856
:1010A0007F5FF394E3949F819884BA84AB8410812A
:1010B000C12C2C2D0C2D6C2D608111278894611171
:1010C000680F08F46FEF8195889470FD160F1795DF
:1010D000889471FD160F1795889472FD160F179559
:1010E000889473FD160F1795889474FD160F179545
:1010F000889475FD160F1795889476FD160F179531
:10110000889477FD160F17958894262F7111212F3B
:101110008D0D122F002C8BB800C000C017FF3BB9FB
:10112000618122278894002C3BB96111690F00C0AE
:1011300000C0002C8BB800C000C016FF3BB908F4FB
:101140006FEF91958894002C3BB9F0FC260F00C0FE
:1011500000C0002C8BB800C000C015FF3BB927951C
:101160008894F1FC260F002C3BB92795889400C089
:1011700000C0002C8BB800C000C014FF3BB9F2FCCB
:10118000260F27958894002C3BB9F3FC260F00C04E
:1011900000C0002C8BB800C000C013FF3BB92795DE
:1011A0008894F4FC260F002C3BB92795889400C046
:1011B00000C0002C8BB800C000C012FF3BB9F5FC8A
:1011C000260F27958894002C3BB9F6FC260F00C00B
:1011D00000C0002C8BB800C000C011FF3BB92795A0
:1011E0008894F7FC260F002C3BB92795889400C003
:1011F00000C0002C8BB800C000C010FF3BB9162FF8
:10120000F110122F9B0D002C3BB900C000C000C094
:10121000002C8BB800C000C017FF3BB962812227A9
:101220008894002C3BB96111690D00C000C0002CEE
:101230008BB800C000C016FF3BB908F46FEFE40F95
:10124000F51F002C3BB9E0FC260F00C000C0002CAD
:101250008BB800C000C015FF3BB927958894E1FC0E
:10126000260F002C3BB92795889400C000C0002CA5
:101270008BB800C000C014FF3BB9E2FC260F2795D5
:101280008894002C3BB9E3FC260F00C000C0002C62
:101290008BB800C000C013FF3BB927958894E4FCCD
:1012A000260F002C3BB92795889400C000C0002C65
:1012B0008BB800C000C012FF3BB9E5FC260F279594
:1012C0008894002C3BB9E6FC260F00C000C0002C1F
:1012D0008BB800C000C011FF3BB927958894E7FC8C
:1012E000260F002C3BB92795889400C000C0002C25
:1012F0008BB800C000C010FF3BB9162FE110122FB1
:101300009194002C3BB99A0C00C000C000C08BB86F
:1013100000C000C017FF3BB9608122278894002CD1
:101320003BB96111680F00C000C0002C8BB800C031
:1013300000C016FF3BB908F46FEF81958894002C2C
:101340003BB970FD260F00C000C0002C8BB800C058
:1013500000C015FF3BB92795889471FD260F002C1E
:101360003BB92795889400C000C0002C8BB800C002
:1013700000C014FF3BB972FD260F27958894002CFE
:101380003BB973FD260F00C000C0002C8BB800C015
:1013900000C013FF3BB92795889474FD260F002CDD
:1013A0003BB92795889400C000C0002C8BB800C0C2
:1013B00000C012FF3BB975FD260F27958894002CBD
:1013C0003BB976FD260F00C000C0002C8BB800C0D2
:1013D00000C011FF3BB92795889477FD260F002C9C
:1013E0003BB92795889400C000C0002C8BB800C082
:1013F00000C010FF3BB9162F7111122F8D0D002C5C
:101400003BB900C0119709F086CEEA81FB812EE13D
:1014100030E0DF010E945B0D30E020E0A901AAE985
:10142000EA9F0E0E411DFA9F400D511D11244F0FD2
:10143000511D7B018C01E40EF51E011D111DB8012B
:10144000A701493E03E050076105710508F435C066
:10145000485E53406109710982E07695679557951A
:1014600047958A95D1F7C90127E0429F040E811D57
:10147000529F800D911D1124850F911D20917A019D
:1014800030E0420F531F840F951F4091F901509196
:10149000FA016091FB017091FC01292F3327420F63
:1014A000531F611D711D4093F9015093FA01609320
:1014B000FB017093FC0180937A017894C201DF9163
:1014C000CF911F910F91FF90EF90DF90CF90BF9041
:1014D000AF909F908F907F905F904F900C940201FF
:1014E00081E090E00895559A0895FC0184E091E030
:1014F00091838083138212828FEF86838783808714
:1015000081878287838781E084871686158680E7B6
:1015100097E1908B878783E090E0928B818B148A90
:10152000138A158214828091780190917901892B18
:1015300021F4F0937901E0937801A0917601B091C4
:101540007701109721F01596FC93EE931497F09382
:101550007701E09376010895FC01858596850895CD
:10156000AF92BF92CF92DF92EF92FF920F931F93B1
:10157000CF93DF9300D01F92CDB7DEB75A01198207
:101580001A821B82882361F18B01E1E0F0E0E82EF2
:10159000F12CD8012D918D012223F1F06F01B1E0E2
:1015A000CB1AD108D501AC0DBD1D4C914423A1F03F
:1015B00030E02F5F3F4FD7010E944C0DA42FB0E0C9
:1015C00011969B01AC010E94620DA1E0B0E0AC0F4E
:1015D000BD1FAC0DBD1D8C933196E430F105C9F6ED
:1015E00069817A818B810F900F900F90DF91CF915D
:1015F0001F910F91FF90EF90DF90CF90BF90AF9031
:1016000008956F927F928F92CF92DF92EF92FF9226
:101610000F931F93CF93DF93CDB7DEB762970FB6CB
:10162000F894DEBF0FBECDBF8C016B017A01822F13
:10163000A801475F5F4FB8016A5F7F4F0E94B00A01
:101640003B01882ED8011C962C91C701F7FE04C0DF
:10165000882799278E199F09DA82C9829C838B83F8
:101660009E838D83688A798A8A8A213049F5CE01E2
:1016700001960E94C50083E08D871F861E86F7FEB7
:1016800002C08DEF8D87D801ED91FC910288F3891E
:10169000E02DBE016F5F7F4FC801099562960FB6BE
:1016A000F894DEBF0FBECDBFDF91CF911F910F9198
:1016B000FF90EF90DF90CF908F907F906F90089584
:1016C0001C861B861A86198618861F82D4CFCF9255
:1016D000DF92EF92FF920F931F93CF93DF93CDB7DB
:1016E000DEB762970FB6F894DEBF0FBECDBF8C0198
:1016F0006B017A01822FA801475F5F4FB8016A5FD3
:101700007F4F0E94B00A9B01482FD8011C968C91F4
:10171000DA82C982FC82EB82FE82ED82288B398BD1
:101720004A8B813009F5CE0101960E94C5001D86C5
:101730001F861E86D801ED91FC910288F389E02D69
:10174000BE016F5F7F4FC801099562960FB6F8948E
:10175000DEBF0FBECDBFDF91CF911F910F91FF90E4
:10176000EF90DF90CF9008951C861B861A8619860D
:1017700018861F82DCCF90E080E00895FC0164872A
:101780000895FC01848590E008950E94A90DFC0154
:1017900082819381009789F02585368577FDB9018F
:1017A000261737070CF4B901AB01440F551F460F3C
:1017B000571F70E060E00C94AE0D08951F920F92D9
:1017C0000FB60F9211242F933F938F939F93AF9354
:1017D000BF938091F9019091FA01A091FB01B09122
:1017E000FC013091F80123E0230F2D3758F50196C5
:1017F000A11DB11D2093F8018093F9019093FA0186
:10180000A093FB01B093FC018091FD019091FE013A
:10181000A091FF01B09100020196A11DB11D80931E
:10182000FD019093FE01A093FF01B0930002BF91D0
:10183000AF919F918F913F912F910F900FBE0F907D
:101840001F90189526E8230F0296A11DB11DD2CF37
:1018500081E092E0909356028093550287E592E0F2
:101860009093AC028093AB028DEA92E090930203D6
:101870008093010383E093E0909358038093570390
:10188000E9E5F3E08FEF80831282118214861386DC
:101890008FEF9FEFDC0187839087A187B287138248
:1018A0001482158216820895789484B5826084BD6E
:1018B00084B5816084BD85B5826085BD85B5816054
:1018C00085BD80916E00816080936E0010928100D2
:1018D000809181008260809381008091810081608D
:1018E000809381008091800081608093800080914E
:1018F000B10084608093B1008091B00081608093DA
:10190000B00080917A00846080937A0080917A00A0
:10191000826080937A0080917A00816080937A005F
:1019200080917A00806880937A001092C100C09103
:101930005502D09156028091F001811111C089EDBC
:1019400091E00E94750A1092EF011092EE0182E67A
:1019500091E09093DA018093D90181E08093F001C6
:10196000BE0189ED91E00E945F00C091AB02D09171
:10197000AC028091D101811111C08AEB91E00E94EB
:10198000750A1092D0011092CF018AE491E09093F1
:10199000BB018093BA0181E08093D101BE018AEB43
:1019A00091E00E945F00C0910103D09102038091F9
:1019B000B201811111C08BE991E00E94750A109269
:1019C000B1011092B00182E391E090939C01809369
:1019D0009B0181E08093B201BE018BE991E00E94FE
:1019E0005F00C0915703D0915803809193018111FA
:1019F00011C08CE791E00E94750A1092920110923A
:101A000091018AE191E090937D0180937C0181E0D6
:101A100080939301BE018CE791E00E945F008FEFFD
:101A200080935903C0E0D0E02097F1F30E940000BA
:101A3000FBCF97FB072E16F4009407D077FD09D053
:101A40000E946D0D07FC05D03EF4909581959F4F47
:101A50000895709561957F4F0895052E97FB1EF4AC
:101A600000940E94440D57FD07D00E94810D07FC91
:101A700003D04EF40C94440D50954095309521952B
:101A80003F4F4F4F5F4F08959095809570956195AA
:101A90007F4F8F4F9F4F0895A29FB001B39FC0010A
:101AA000A39F700D811D1124911DB29F700D811D8A
:101AB0001124911D08950E944C0DB7FF0895821BBB
:101AC000930B08950E944C0DA59F900DB49F900D0F
:101AD000A49F800D911D11240895AA1BBB1B51E1E9
:101AE00007C0AA1FBB1FA617B70710F0A61BB70B8E
:101AF000881F991F5A95A9F780959095BC01CD0133
:101B00000895A1E21A2EAA1BBB1BFD010DC0AA1F3E
:101B1000BB1FEE1FFF1FA217B307E407F50720F056
:101B2000A21BB30BE40BF50B661F771F881F991FD1
:101B30001A9469F760957095809590959B01AC011A
:101B4000BD01CF010895EE0FFF1F0590F491E02D28
:101B5000099481E090E0F8940C94B50DDC0101C08B
:0E1B60006D9341505040E0F70895F894FFCF88
:101B6E0000000000C50BC50BC50BC70BAC0A700AF5
:101B7E00C10BBE0BBB0B00000000670B010B730A01
:101B8E00C70BAC0A700AC10BBE0B6E031D0800001A
:101B9E000000670B010B1B08C70BAC0A700AC10BC8
:101BAE00BE0B6E03C80500000000670B010BC605D7
:101BBE00C70BAC0A700AC10BBE0B6E037303000099
:101BCE000000670B010B7103C70BAC0A700AC10B47
:061BDE00BE0B6E031B01AB
:00000001FF
